{
	"data": {
		"bytecode": {
			"linkReferences": {},
			"object": "608060405234801561001057600080fd5b50610aec806100206000396000f3fe60806040526004361061004e5760003560e01c80635a9b0b8914610051578063a6aeaeb514610080578063b0a1c1c4146100a9578063d0e30db0146100d4578063de1f950b146100de5761004f565b5b005b34801561005d57600080fd5b50610066610107565b60405161007795949392919061045e565b60405180910390f35b34801561008c57600080fd5b506100a760048036038101906100a2919061053d565b610270565b005b3480156100b557600080fd5b506100be6102c2565b6040516100cb919061057d565b60405180910390f35b6100dc6102c8565b005b3480156100ea57600080fd5b5061010560048036038101906101009190610725565b6102d1565b005b600080600060608060008054906101000a900473ffffffffffffffffffffffffffffffffffffffff16600060149054906101000a900460ff166001546002600381805461015390610807565b80601f016020809104026020016040519081016040528092919081815260200182805461017f90610807565b80156101cc5780601f106101a1576101008083540402835291602001916101cc565b820191906000526020600020905b8154815290600101906020018083116101af57829003601f168201915b505050505091508080546101df90610807565b80601f016020809104026020016040519081016040528092919081815260200182805461020b90610807565b80156102585780601f1061022d57610100808354040283529160200191610258565b820191906000526020600020905b81548152906001019060200180831161023b57829003601f168201915b50505050509050945094509450945094509091929394565b8073ffffffffffffffffffffffffffffffffffffffff166108fc839081150290604051600060405180830381858888f193505050501580156102b6573d6000803e3d6000fd5b50476001819055505050565b60015481565b47600181905550565b846000806101000a81548173ffffffffffffffffffffffffffffffffffffffff021916908373ffffffffffffffffffffffffffffffffffffffff16021790555083600060146101000a81548160ff02191690831515021790555082600181905550816002908161034191906109e4565b50806003908161035191906109e4565b505050505050565b600073ffffffffffffffffffffffffffffffffffffffff82169050919050565b600061038482610359565b9050919050565b61039481610379565b82525050565b60008115159050919050565b6103af8161039a565b82525050565b6000819050919050565b6103c8816103b5565b82525050565b600081519050919050565b600082825260208201905092915050565b60005b838110156104085780820151818401526020810190506103ed565b60008484015250505050565b6000601f19601f8301169050919050565b6000610430826103ce565b61043a81856103d9565b935061044a8185602086016103ea565b61045381610414565b840191505092915050565b600060a082019050610473600083018861038b565b61048060208301876103a6565b61048d60408301866103bf565b818103606083015261049f8185610425565b905081810360808301526104b38184610425565b90509695505050505050565b6000604051905090565b600080fd5b600080fd5b6104dc816103b5565b81146104e757600080fd5b50565b6000813590506104f9816104d3565b92915050565b600061050a82610359565b9050919050565b61051a816104ff565b811461052557600080fd5b50565b60008135905061053781610511565b92915050565b60008060408385031215610554576105536104c9565b5b6000610562858286016104ea565b925050602061057385828601610528565b9150509250929050565b600060208201905061059260008301846103bf565b92915050565b6105a181610379565b81146105ac57600080fd5b50565b6000813590506105be81610598565b92915050565b6105cd8161039a565b81146105d857600080fd5b50565b6000813590506105ea816105c4565b92915050565b600080fd5b600080fd5b7f4e487b7100000000000000000000000000000000000000000000000000000000600052604160045260246000fd5b61063282610414565b810181811067ffffffffffffffff82111715610651576106506105fa565b5b80604052505050565b60006106646104bf565b90506106708282610629565b919050565b600067ffffffffffffffff8211156106905761068f6105fa565b5b61069982610414565b9050602081019050919050565b82818337600083830152505050565b60006106c86106c384610675565b61065a565b9050828152602081018484840111156106e4576106e36105f5565b5b6106ef8482856106a6565b509392505050565b600082601f83011261070c5761070b6105f0565b5b813561071c8482602086016106b5565b91505092915050565b600080600080600060a08688031215610741576107406104c9565b5b600061074f888289016105af565b9550506020610760888289016105db565b9450506040610771888289016104ea565b935050606086013567ffffffffffffffff811115610792576107916104ce565b5b61079e888289016106f7565b925050608086013567ffffffffffffffff8111156107bf576107be6104ce565b5b6107cb888289016106f7565b9150509295509295909350565b7f4e487b7100000000000000000000000000000000000000000000000000000000600052602260045260246000fd5b6000600282049050600182168061081f57607f821691505b602082108103610832576108316107d8565b5b50919050565b60008190508160005260206000209050919050565b60006020601f8301049050919050565b600082821b905092915050565b60006008830261089a7fffffffffffffffffffffffffffffffffffffffffffffffffffffffffffffffff8261085d565b6108a4868361085d565b95508019841693508086168417925050509392505050565b6000819050919050565b60006108e16108dc6108d7846103b5565b6108bc565b6103b5565b9050919050565b6000819050919050565b6108fb836108c6565b61090f610907826108e8565b84845461086a565b825550505050565b600090565b610924610917565b61092f8184846108f2565b505050565b5b818110156109535761094860008261091c565b600181019050610935565b5050565b601f8211156109985761096981610838565b6109728461084d565b81016020851015610981578190505b61099561098d8561084d565b830182610934565b50505b505050565b600082821c905092915050565b60006109bb6000198460080261099d565b1980831691505092915050565b60006109d483836109aa565b9150826002028217905092915050565b6109ed826103ce565b67ffffffffffffffff811115610a0657610a056105fa565b5b610a108254610807565b610a1b828285610957565b600060209050601f831160018114610a4e5760008415610a3c578287015190505b610a4685826109c8565b865550610aae565b601f198416610a5c86610838565b60005b82811015610a8457848901518255600182019150602085019450602081019050610a5f565b86831015610aa15784890151610a9d601f8916826109aa565b8355505b6001600288020188555050505b50505050505056fea2646970667358221220fda941ad34f278735cd769a07845be1f3ad737dfec7563d0b1ca084f43ef717564736f6c63430008120033",
			"opcodes": "PUSH1 0x80 PUSH1 0x40 MSTORE CALLVALUE DUP1 ISZERO PUSH2 0x10 JUMPI PUSH1 0x0 DUP1 REVERT JUMPDEST POP PUSH2 0xAEC DUP1 PUSH2 0x20 PUSH1 0x0 CODECOPY PUSH1 0x0 RETURN INVALID PUSH1 0x80 PUSH1 0x40 MSTORE PUSH1 0x4 CALLDATASIZE LT PUSH2 0x4E JUMPI PUSH1 0x0 CALLDATALOAD PUSH1 0xE0 SHR DUP1 PUSH4 0x5A9B0B89 EQ PUSH2 0x51 JUMPI DUP1 PUSH4 0xA6AEAEB5 EQ PUSH2 0x80 JUMPI DUP1 PUSH4 0xB0A1C1C4 EQ PUSH2 0xA9 JUMPI DUP1 PUSH4 0xD0E30DB0 EQ PUSH2 0xD4 JUMPI DUP1 PUSH4 0xDE1F950B EQ PUSH2 0xDE JUMPI PUSH2 0x4F JUMP JUMPDEST JUMPDEST STOP JUMPDEST CALLVALUE DUP1 ISZERO PUSH2 0x5D JUMPI PUSH1 0x0 DUP1 REVERT JUMPDEST POP PUSH2 0x66 PUSH2 0x107 JUMP JUMPDEST PUSH1 0x40 MLOAD PUSH2 0x77 SWAP6 SWAP5 SWAP4 SWAP3 SWAP2 SWAP1 PUSH2 0x45E JUMP JUMPDEST PUSH1 0x40 MLOAD DUP1 SWAP2 SUB SWAP1 RETURN JUMPDEST CALLVALUE DUP1 ISZERO PUSH2 0x8C JUMPI PUSH1 0x0 DUP1 REVERT JUMPDEST POP PUSH2 0xA7 PUSH1 0x4 DUP1 CALLDATASIZE SUB DUP2 ADD SWAP1 PUSH2 0xA2 SWAP2 SWAP1 PUSH2 0x53D JUMP JUMPDEST PUSH2 0x270 JUMP JUMPDEST STOP JUMPDEST CALLVALUE DUP1 ISZERO PUSH2 0xB5 JUMPI PUSH1 0x0 DUP1 REVERT JUMPDEST POP PUSH2 0xBE PUSH2 0x2C2 JUMP JUMPDEST PUSH1 0x40 MLOAD PUSH2 0xCB SWAP2 SWAP1 PUSH2 0x57D JUMP JUMPDEST PUSH1 0x40 MLOAD DUP1 SWAP2 SUB SWAP1 RETURN JUMPDEST PUSH2 0xDC PUSH2 0x2C8 JUMP JUMPDEST STOP JUMPDEST CALLVALUE DUP1 ISZERO PUSH2 0xEA JUMPI PUSH1 0x0 DUP1 REVERT JUMPDEST POP PUSH2 0x105 PUSH1 0x4 DUP1 CALLDATASIZE SUB DUP2 ADD SWAP1 PUSH2 0x100 SWAP2 SWAP1 PUSH2 0x725 JUMP JUMPDEST PUSH2 0x2D1 JUMP JUMPDEST STOP JUMPDEST PUSH1 0x0 DUP1 PUSH1 0x0 PUSH1 0x60 DUP1 PUSH1 0x0 DUP1 SLOAD SWAP1 PUSH2 0x100 EXP SWAP1 DIV PUSH20 0xFFFFFFFFFFFFFFFFFFFFFFFFFFFFFFFFFFFFFFFF AND PUSH1 0x0 PUSH1 0x14 SWAP1 SLOAD SWAP1 PUSH2 0x100 EXP SWAP1 DIV PUSH1 0xFF AND PUSH1 0x1 SLOAD PUSH1 0x2 PUSH1 0x3 DUP2 DUP1 SLOAD PUSH2 0x153 SWAP1 PUSH2 0x807 JUMP JUMPDEST DUP1 PUSH1 0x1F ADD PUSH1 0x20 DUP1 SWAP2 DIV MUL PUSH1 0x20 ADD PUSH1 0x40 MLOAD SWAP1 DUP2 ADD PUSH1 0x40 MSTORE DUP1 SWAP3 SWAP2 SWAP1 DUP2 DUP2 MSTORE PUSH1 0x20 ADD DUP3 DUP1 SLOAD PUSH2 0x17F SWAP1 PUSH2 0x807 JUMP JUMPDEST DUP1 ISZERO PUSH2 0x1CC JUMPI DUP1 PUSH1 0x1F LT PUSH2 0x1A1 JUMPI PUSH2 0x100 DUP1 DUP4 SLOAD DIV MUL DUP4 MSTORE SWAP2 PUSH1 0x20 ADD SWAP2 PUSH2 0x1CC JUMP JUMPDEST DUP3 ADD SWAP2 SWAP1 PUSH1 0x0 MSTORE PUSH1 0x20 PUSH1 0x0 KECCAK256 SWAP1 JUMPDEST DUP2 SLOAD DUP2 MSTORE SWAP1 PUSH1 0x1 ADD SWAP1 PUSH1 0x20 ADD DUP1 DUP4 GT PUSH2 0x1AF JUMPI DUP3 SWAP1 SUB PUSH1 0x1F AND DUP3 ADD SWAP2 JUMPDEST POP POP POP POP POP SWAP2 POP DUP1 DUP1 SLOAD PUSH2 0x1DF SWAP1 PUSH2 0x807 JUMP JUMPDEST DUP1 PUSH1 0x1F ADD PUSH1 0x20 DUP1 SWAP2 DIV MUL PUSH1 0x20 ADD PUSH1 0x40 MLOAD SWAP1 DUP2 ADD PUSH1 0x40 MSTORE DUP1 SWAP3 SWAP2 SWAP1 DUP2 DUP2 MSTORE PUSH1 0x20 ADD DUP3 DUP1 SLOAD PUSH2 0x20B SWAP1 PUSH2 0x807 JUMP JUMPDEST DUP1 ISZERO PUSH2 0x258 JUMPI DUP1 PUSH1 0x1F LT PUSH2 0x22D JUMPI PUSH2 0x100 DUP1 DUP4 SLOAD DIV MUL DUP4 MSTORE SWAP2 PUSH1 0x20 ADD SWAP2 PUSH2 0x258 JUMP JUMPDEST DUP3 ADD SWAP2 SWAP1 PUSH1 0x0 MSTORE PUSH1 0x20 PUSH1 0x0 KECCAK256 SWAP1 JUMPDEST DUP2 SLOAD DUP2 MSTORE SWAP1 PUSH1 0x1 ADD SWAP1 PUSH1 0x20 ADD DUP1 DUP4 GT PUSH2 0x23B JUMPI DUP3 SWAP1 SUB PUSH1 0x1F AND DUP3 ADD SWAP2 JUMPDEST POP POP POP POP POP SWAP1 POP SWAP5 POP SWAP5 POP SWAP5 POP SWAP5 POP SWAP5 POP SWAP1 SWAP2 SWAP3 SWAP4 SWAP5 JUMP JUMPDEST DUP1 PUSH20 0xFFFFFFFFFFFFFFFFFFFFFFFFFFFFFFFFFFFFFFFF AND PUSH2 0x8FC DUP4 SWAP1 DUP2 ISZERO MUL SWAP1 PUSH1 0x40 MLOAD PUSH1 0x0 PUSH1 0x40 MLOAD DUP1 DUP4 SUB DUP2 DUP6 DUP9 DUP9 CALL SWAP4 POP POP POP POP ISZERO DUP1 ISZERO PUSH2 0x2B6 JUMPI RETURNDATASIZE PUSH1 0x0 DUP1 RETURNDATACOPY RETURNDATASIZE PUSH1 0x0 REVERT JUMPDEST POP SELFBALANCE PUSH1 0x1 DUP2 SWAP1 SSTORE POP POP POP JUMP JUMPDEST PUSH1 0x1 SLOAD DUP2 JUMP JUMPDEST SELFBALANCE PUSH1 0x1 DUP2 SWAP1 SSTORE POP JUMP JUMPDEST DUP5 PUSH1 0x0 DUP1 PUSH2 0x100 EXP DUP2 SLOAD DUP2 PUSH20 0xFFFFFFFFFFFFFFFFFFFFFFFFFFFFFFFFFFFFFFFF MUL NOT AND SWAP1 DUP4 PUSH20 0xFFFFFFFFFFFFFFFFFFFFFFFFFFFFFFFFFFFFFFFF AND MUL OR SWAP1 SSTORE POP DUP4 PUSH1 0x0 PUSH1 0x14 PUSH2 0x100 EXP DUP2 SLOAD DUP2 PUSH1 0xFF MUL NOT AND SWAP1 DUP4 ISZERO ISZERO MUL OR SWAP1 SSTORE POP DUP3 PUSH1 0x1 DUP2 SWAP1 SSTORE POP DUP2 PUSH1 0x2 SWAP1 DUP2 PUSH2 0x341 SWAP2 SWAP1 PUSH2 0x9E4 JUMP JUMPDEST POP DUP1 PUSH1 0x3 SWAP1 DUP2 PUSH2 0x351 SWAP2 SWAP1 PUSH2 0x9E4 JUMP JUMPDEST POP POP POP POP POP POP JUMP JUMPDEST PUSH1 0x0 PUSH20 0xFFFFFFFFFFFFFFFFFFFFFFFFFFFFFFFFFFFFFFFF DUP3 AND SWAP1 POP SWAP2 SWAP1 POP JUMP JUMPDEST PUSH1 0x0 PUSH2 0x384 DUP3 PUSH2 0x359 JUMP JUMPDEST SWAP1 POP SWAP2 SWAP1 POP JUMP JUMPDEST PUSH2 0x394 DUP2 PUSH2 0x379 JUMP JUMPDEST DUP3 MSTORE POP POP JUMP JUMPDEST PUSH1 0x0 DUP2 ISZERO ISZERO SWAP1 POP SWAP2 SWAP1 POP JUMP JUMPDEST PUSH2 0x3AF DUP2 PUSH2 0x39A JUMP JUMPDEST DUP3 MSTORE POP POP JUMP JUMPDEST PUSH1 0x0 DUP2 SWAP1 POP SWAP2 SWAP1 POP JUMP JUMPDEST PUSH2 0x3C8 DUP2 PUSH2 0x3B5 JUMP JUMPDEST DUP3 MSTORE POP POP JUMP JUMPDEST PUSH1 0x0 DUP2 MLOAD SWAP1 POP SWAP2 SWAP1 POP JUMP JUMPDEST PUSH1 0x0 DUP3 DUP3 MSTORE PUSH1 0x20 DUP3 ADD SWAP1 POP SWAP3 SWAP2 POP POP JUMP JUMPDEST PUSH1 0x0 JUMPDEST DUP4 DUP2 LT ISZERO PUSH2 0x408 JUMPI DUP1 DUP3 ADD MLOAD DUP2 DUP5 ADD MSTORE PUSH1 0x20 DUP2 ADD SWAP1 POP PUSH2 0x3ED JUMP JUMPDEST PUSH1 0x0 DUP5 DUP5 ADD MSTORE POP POP POP POP JUMP JUMPDEST PUSH1 0x0 PUSH1 0x1F NOT PUSH1 0x1F DUP4 ADD AND SWAP1 POP SWAP2 SWAP1 POP JUMP JUMPDEST PUSH1 0x0 PUSH2 0x430 DUP3 PUSH2 0x3CE JUMP JUMPDEST PUSH2 0x43A DUP2 DUP6 PUSH2 0x3D9 JUMP JUMPDEST SWAP4 POP PUSH2 0x44A DUP2 DUP6 PUSH1 0x20 DUP7 ADD PUSH2 0x3EA JUMP JUMPDEST PUSH2 0x453 DUP2 PUSH2 0x414 JUMP JUMPDEST DUP5 ADD SWAP2 POP POP SWAP3 SWAP2 POP POP JUMP JUMPDEST PUSH1 0x0 PUSH1 0xA0 DUP3 ADD SWAP1 POP PUSH2 0x473 PUSH1 0x0 DUP4 ADD DUP9 PUSH2 0x38B JUMP JUMPDEST PUSH2 0x480 PUSH1 0x20 DUP4 ADD DUP8 PUSH2 0x3A6 JUMP JUMPDEST PUSH2 0x48D PUSH1 0x40 DUP4 ADD DUP7 PUSH2 0x3BF JUMP JUMPDEST DUP2 DUP2 SUB PUSH1 0x60 DUP4 ADD MSTORE PUSH2 0x49F DUP2 DUP6 PUSH2 0x425 JUMP JUMPDEST SWAP1 POP DUP2 DUP2 SUB PUSH1 0x80 DUP4 ADD MSTORE PUSH2 0x4B3 DUP2 DUP5 PUSH2 0x425 JUMP JUMPDEST SWAP1 POP SWAP7 SWAP6 POP POP POP POP POP POP JUMP JUMPDEST PUSH1 0x0 PUSH1 0x40 MLOAD SWAP1 POP SWAP1 JUMP JUMPDEST PUSH1 0x0 DUP1 REVERT JUMPDEST PUSH1 0x0 DUP1 REVERT JUMPDEST PUSH2 0x4DC DUP2 PUSH2 0x3B5 JUMP JUMPDEST DUP2 EQ PUSH2 0x4E7 JUMPI PUSH1 0x0 DUP1 REVERT JUMPDEST POP JUMP JUMPDEST PUSH1 0x0 DUP2 CALLDATALOAD SWAP1 POP PUSH2 0x4F9 DUP2 PUSH2 0x4D3 JUMP JUMPDEST SWAP3 SWAP2 POP POP JUMP JUMPDEST PUSH1 0x0 PUSH2 0x50A DUP3 PUSH2 0x359 JUMP JUMPDEST SWAP1 POP SWAP2 SWAP1 POP JUMP JUMPDEST PUSH2 0x51A DUP2 PUSH2 0x4FF JUMP JUMPDEST DUP2 EQ PUSH2 0x525 JUMPI PUSH1 0x0 DUP1 REVERT JUMPDEST POP JUMP JUMPDEST PUSH1 0x0 DUP2 CALLDATALOAD SWAP1 POP PUSH2 0x537 DUP2 PUSH2 0x511 JUMP JUMPDEST SWAP3 SWAP2 POP POP JUMP JUMPDEST PUSH1 0x0 DUP1 PUSH1 0x40 DUP4 DUP6 SUB SLT ISZERO PUSH2 0x554 JUMPI PUSH2 0x553 PUSH2 0x4C9 JUMP JUMPDEST JUMPDEST PUSH1 0x0 PUSH2 0x562 DUP6 DUP3 DUP7 ADD PUSH2 0x4EA JUMP JUMPDEST SWAP3 POP POP PUSH1 0x20 PUSH2 0x573 DUP6 DUP3 DUP7 ADD PUSH2 0x528 JUMP JUMPDEST SWAP2 POP POP SWAP3 POP SWAP3 SWAP1 POP JUMP JUMPDEST PUSH1 0x0 PUSH1 0x20 DUP3 ADD SWAP1 POP PUSH2 0x592 PUSH1 0x0 DUP4 ADD DUP5 PUSH2 0x3BF JUMP JUMPDEST SWAP3 SWAP2 POP POP JUMP JUMPDEST PUSH2 0x5A1 DUP2 PUSH2 0x379 JUMP JUMPDEST DUP2 EQ PUSH2 0x5AC JUMPI PUSH1 0x0 DUP1 REVERT JUMPDEST POP JUMP JUMPDEST PUSH1 0x0 DUP2 CALLDATALOAD SWAP1 POP PUSH2 0x5BE DUP2 PUSH2 0x598 JUMP JUMPDEST SWAP3 SWAP2 POP POP JUMP JUMPDEST PUSH2 0x5CD DUP2 PUSH2 0x39A JUMP JUMPDEST DUP2 EQ PUSH2 0x5D8 JUMPI PUSH1 0x0 DUP1 REVERT JUMPDEST POP JUMP JUMPDEST PUSH1 0x0 DUP2 CALLDATALOAD SWAP1 POP PUSH2 0x5EA DUP2 PUSH2 0x5C4 JUMP JUMPDEST SWAP3 SWAP2 POP POP JUMP JUMPDEST PUSH1 0x0 DUP1 REVERT JUMPDEST PUSH1 0x0 DUP1 REVERT JUMPDEST PUSH32 0x4E487B7100000000000000000000000000000000000000000000000000000000 PUSH1 0x0 MSTORE PUSH1 0x41 PUSH1 0x4 MSTORE PUSH1 0x24 PUSH1 0x0 REVERT JUMPDEST PUSH2 0x632 DUP3 PUSH2 0x414 JUMP JUMPDEST DUP2 ADD DUP2 DUP2 LT PUSH8 0xFFFFFFFFFFFFFFFF DUP3 GT OR ISZERO PUSH2 0x651 JUMPI PUSH2 0x650 PUSH2 0x5FA JUMP JUMPDEST JUMPDEST DUP1 PUSH1 0x40 MSTORE POP POP POP JUMP JUMPDEST PUSH1 0x0 PUSH2 0x664 PUSH2 0x4BF JUMP JUMPDEST SWAP1 POP PUSH2 0x670 DUP3 DUP3 PUSH2 0x629 JUMP JUMPDEST SWAP2 SWAP1 POP JUMP JUMPDEST PUSH1 0x0 PUSH8 0xFFFFFFFFFFFFFFFF DUP3 GT ISZERO PUSH2 0x690 JUMPI PUSH2 0x68F PUSH2 0x5FA JUMP JUMPDEST JUMPDEST PUSH2 0x699 DUP3 PUSH2 0x414 JUMP JUMPDEST SWAP1 POP PUSH1 0x20 DUP2 ADD SWAP1 POP SWAP2 SWAP1 POP JUMP JUMPDEST DUP3 DUP2 DUP4 CALLDATACOPY PUSH1 0x0 DUP4 DUP4 ADD MSTORE POP POP POP JUMP JUMPDEST PUSH1 0x0 PUSH2 0x6C8 PUSH2 0x6C3 DUP5 PUSH2 0x675 JUMP JUMPDEST PUSH2 0x65A JUMP JUMPDEST SWAP1 POP DUP3 DUP2 MSTORE PUSH1 0x20 DUP2 ADD DUP5 DUP5 DUP5 ADD GT ISZERO PUSH2 0x6E4 JUMPI PUSH2 0x6E3 PUSH2 0x5F5 JUMP JUMPDEST JUMPDEST PUSH2 0x6EF DUP5 DUP3 DUP6 PUSH2 0x6A6 JUMP JUMPDEST POP SWAP4 SWAP3 POP POP POP JUMP JUMPDEST PUSH1 0x0 DUP3 PUSH1 0x1F DUP4 ADD SLT PUSH2 0x70C JUMPI PUSH2 0x70B PUSH2 0x5F0 JUMP JUMPDEST JUMPDEST DUP2 CALLDATALOAD PUSH2 0x71C DUP5 DUP3 PUSH1 0x20 DUP7 ADD PUSH2 0x6B5 JUMP JUMPDEST SWAP2 POP POP SWAP3 SWAP2 POP POP JUMP JUMPDEST PUSH1 0x0 DUP1 PUSH1 0x0 DUP1 PUSH1 0x0 PUSH1 0xA0 DUP7 DUP9 SUB SLT ISZERO PUSH2 0x741 JUMPI PUSH2 0x740 PUSH2 0x4C9 JUMP JUMPDEST JUMPDEST PUSH1 0x0 PUSH2 0x74F DUP9 DUP3 DUP10 ADD PUSH2 0x5AF JUMP JUMPDEST SWAP6 POP POP PUSH1 0x20 PUSH2 0x760 DUP9 DUP3 DUP10 ADD PUSH2 0x5DB JUMP JUMPDEST SWAP5 POP POP PUSH1 0x40 PUSH2 0x771 DUP9 DUP3 DUP10 ADD PUSH2 0x4EA JUMP JUMPDEST SWAP4 POP POP PUSH1 0x60 DUP7 ADD CALLDATALOAD PUSH8 0xFFFFFFFFFFFFFFFF DUP2 GT ISZERO PUSH2 0x792 JUMPI PUSH2 0x791 PUSH2 0x4CE JUMP JUMPDEST JUMPDEST PUSH2 0x79E DUP9 DUP3 DUP10 ADD PUSH2 0x6F7 JUMP JUMPDEST SWAP3 POP POP PUSH1 0x80 DUP7 ADD CALLDATALOAD PUSH8 0xFFFFFFFFFFFFFFFF DUP2 GT ISZERO PUSH2 0x7BF JUMPI PUSH2 0x7BE PUSH2 0x4CE JUMP JUMPDEST JUMPDEST PUSH2 0x7CB DUP9 DUP3 DUP10 ADD PUSH2 0x6F7 JUMP JUMPDEST SWAP2 POP POP SWAP3 SWAP6 POP SWAP3 SWAP6 SWAP1 SWAP4 POP JUMP JUMPDEST PUSH32 0x4E487B7100000000000000000000000000000000000000000000000000000000 PUSH1 0x0 MSTORE PUSH1 0x22 PUSH1 0x4 MSTORE PUSH1 0x24 PUSH1 0x0 REVERT JUMPDEST PUSH1 0x0 PUSH1 0x2 DUP3 DIV SWAP1 POP PUSH1 0x1 DUP3 AND DUP1 PUSH2 0x81F JUMPI PUSH1 0x7F DUP3 AND SWAP2 POP JUMPDEST PUSH1 0x20 DUP3 LT DUP2 SUB PUSH2 0x832 JUMPI PUSH2 0x831 PUSH2 0x7D8 JUMP JUMPDEST JUMPDEST POP SWAP2 SWAP1 POP JUMP JUMPDEST PUSH1 0x0 DUP2 SWAP1 POP DUP2 PUSH1 0x0 MSTORE PUSH1 0x20 PUSH1 0x0 KECCAK256 SWAP1 POP SWAP2 SWAP1 POP JUMP JUMPDEST PUSH1 0x0 PUSH1 0x20 PUSH1 0x1F DUP4 ADD DIV SWAP1 POP SWAP2 SWAP1 POP JUMP JUMPDEST PUSH1 0x0 DUP3 DUP3 SHL SWAP1 POP SWAP3 SWAP2 POP POP JUMP JUMPDEST PUSH1 0x0 PUSH1 0x8 DUP4 MUL PUSH2 0x89A PUSH32 0xFFFFFFFFFFFFFFFFFFFFFFFFFFFFFFFFFFFFFFFFFFFFFFFFFFFFFFFFFFFFFFFF DUP3 PUSH2 0x85D JUMP JUMPDEST PUSH2 0x8A4 DUP7 DUP4 PUSH2 0x85D JUMP JUMPDEST SWAP6 POP DUP1 NOT DUP5 AND SWAP4 POP DUP1 DUP7 AND DUP5 OR SWAP3 POP POP POP SWAP4 SWAP3 POP POP POP JUMP JUMPDEST PUSH1 0x0 DUP2 SWAP1 POP SWAP2 SWAP1 POP JUMP JUMPDEST PUSH1 0x0 PUSH2 0x8E1 PUSH2 0x8DC PUSH2 0x8D7 DUP5 PUSH2 0x3B5 JUMP JUMPDEST PUSH2 0x8BC JUMP JUMPDEST PUSH2 0x3B5 JUMP JUMPDEST SWAP1 POP SWAP2 SWAP1 POP JUMP JUMPDEST PUSH1 0x0 DUP2 SWAP1 POP SWAP2 SWAP1 POP JUMP JUMPDEST PUSH2 0x8FB DUP4 PUSH2 0x8C6 JUMP JUMPDEST PUSH2 0x90F PUSH2 0x907 DUP3 PUSH2 0x8E8 JUMP JUMPDEST DUP5 DUP5 SLOAD PUSH2 0x86A JUMP JUMPDEST DUP3 SSTORE POP POP POP POP JUMP JUMPDEST PUSH1 0x0 SWAP1 JUMP JUMPDEST PUSH2 0x924 PUSH2 0x917 JUMP JUMPDEST PUSH2 0x92F DUP2 DUP5 DUP5 PUSH2 0x8F2 JUMP JUMPDEST POP POP POP JUMP JUMPDEST JUMPDEST DUP2 DUP2 LT ISZERO PUSH2 0x953 JUMPI PUSH2 0x948 PUSH1 0x0 DUP3 PUSH2 0x91C JUMP JUMPDEST PUSH1 0x1 DUP2 ADD SWAP1 POP PUSH2 0x935 JUMP JUMPDEST POP POP JUMP JUMPDEST PUSH1 0x1F DUP3 GT ISZERO PUSH2 0x998 JUMPI PUSH2 0x969 DUP2 PUSH2 0x838 JUMP JUMPDEST PUSH2 0x972 DUP5 PUSH2 0x84D JUMP JUMPDEST DUP2 ADD PUSH1 0x20 DUP6 LT ISZERO PUSH2 0x981 JUMPI DUP2 SWAP1 POP JUMPDEST PUSH2 0x995 PUSH2 0x98D DUP6 PUSH2 0x84D JUMP JUMPDEST DUP4 ADD DUP3 PUSH2 0x934 JUMP JUMPDEST POP POP JUMPDEST POP POP POP JUMP JUMPDEST PUSH1 0x0 DUP3 DUP3 SHR SWAP1 POP SWAP3 SWAP2 POP POP JUMP JUMPDEST PUSH1 0x0 PUSH2 0x9BB PUSH1 0x0 NOT DUP5 PUSH1 0x8 MUL PUSH2 0x99D JUMP JUMPDEST NOT DUP1 DUP4 AND SWAP2 POP POP SWAP3 SWAP2 POP POP JUMP JUMPDEST PUSH1 0x0 PUSH2 0x9D4 DUP4 DUP4 PUSH2 0x9AA JUMP JUMPDEST SWAP2 POP DUP3 PUSH1 0x2 MUL DUP3 OR SWAP1 POP SWAP3 SWAP2 POP POP JUMP JUMPDEST PUSH2 0x9ED DUP3 PUSH2 0x3CE JUMP JUMPDEST PUSH8 0xFFFFFFFFFFFFFFFF DUP2 GT ISZERO PUSH2 0xA06 JUMPI PUSH2 0xA05 PUSH2 0x5FA JUMP JUMPDEST JUMPDEST PUSH2 0xA10 DUP3 SLOAD PUSH2 0x807 JUMP JUMPDEST PUSH2 0xA1B DUP3 DUP3 DUP6 PUSH2 0x957 JUMP JUMPDEST PUSH1 0x0 PUSH1 0x20 SWAP1 POP PUSH1 0x1F DUP4 GT PUSH1 0x1 DUP2 EQ PUSH2 0xA4E JUMPI PUSH1 0x0 DUP5 ISZERO PUSH2 0xA3C JUMPI DUP3 DUP8 ADD MLOAD SWAP1 POP JUMPDEST PUSH2 0xA46 DUP6 DUP3 PUSH2 0x9C8 JUMP JUMPDEST DUP7 SSTORE POP PUSH2 0xAAE JUMP JUMPDEST PUSH1 0x1F NOT DUP5 AND PUSH2 0xA5C DUP7 PUSH2 0x838 JUMP JUMPDEST PUSH1 0x0 JUMPDEST DUP3 DUP2 LT ISZERO PUSH2 0xA84 JUMPI DUP5 DUP10 ADD MLOAD DUP3 SSTORE PUSH1 0x1 DUP3 ADD SWAP2 POP PUSH1 0x20 DUP6 ADD SWAP5 POP PUSH1 0x20 DUP2 ADD SWAP1 POP PUSH2 0xA5F JUMP JUMPDEST DUP7 DUP4 LT ISZERO PUSH2 0xAA1 JUMPI DUP5 DUP10 ADD MLOAD PUSH2 0xA9D PUSH1 0x1F DUP10 AND DUP3 PUSH2 0x9AA JUMP JUMPDEST DUP4 SSTORE POP JUMPDEST PUSH1 0x1 PUSH1 0x2 DUP9 MUL ADD DUP9 SSTORE POP POP POP JUMPDEST POP POP POP POP POP POP JUMP INVALID LOG2 PUSH5 0x6970667358 0x22 SLT KECCAK256 REVERT 0xA9 COINBASE 0xAD CALLVALUE CALLCODE PUSH25 0x735CD769A07845BE1F3AD737DFEC7563D0B1CA084F43EF7175 PUSH5 0x736F6C6343 STOP ADDMOD SLT STOP CALLER "
		},
		"gasEstimates": {
			"creation": {
				"codeDepositCost": "559200",
				"executionCost": "594",
				"totalCost": "559794"
			},
			"external": {
				"": "173",
				"accountBalance()": "2451",
				"deposit()": "22280",
				"getInfo()": "infinite",
				"sendRemittance(uint256,address)": "infinite",
				"setInfo(address,bool,uint256,string,string)": "infinite"
			}
		},
		"methodIdentifiers": {
			"accountBalance()": "b0a1c1c4",
			"deposit()": "d0e30db0",
			"getInfo()": "5a9b0b89",
			"sendRemittance(uint256,address)": "a6aeaeb5",
			"setInfo(address,bool,uint256,string,string)": "de1f950b"
		}
	},
	"abi": [
		{
			"stateMutability": "payable",
			"type": "fallback"
		},
		{
			"inputs": [],
			"name": "accountBalance",
			"outputs": [
				{
					"internalType": "uint256",
					"name": "",
					"type": "uint256"
				}
			],
			"stateMutability": "view",
			"type": "function"
		},
		{
			"inputs": [],
			"name": "deposit",
			"outputs": [],
			"stateMutability": "payable",
			"type": "function"
		},
		{
			"inputs": [],
			"name": "getInfo",
			"outputs": [
				{
					"internalType": "address",
					"name": "",
					"type": "address"
				},
				{
					"internalType": "bool",
					"name": "",
					"type": "bool"
				},
				{
					"internalType": "uint256",
					"name": "",
					"type": "uint256"
				},
				{
					"internalType": "string",
					"name": "",
					"type": "string"
				},
				{
					"internalType": "string",
					"name": "",
					"type": "string"
				}
			],
			"stateMutability": "view",
			"type": "function"
		},
		{
			"inputs": [
				{
					"internalType": "uint256",
					"name": "amount",
					"type": "uint256"
				},
				{
					"internalType": "address payable",
					"name": "recipient",
					"type": "address"
				}
			],
			"name": "sendRemittance",
			"outputs": [],
			"stateMutability": "nonpayable",
			"type": "function"
		},
		{
			"inputs": [
				{
					"internalType": "address",
					"name": "newOwner",
					"type": "address"
				},
				{
					"internalType": "bool",
					"name": "newAccountStatus",
					"type": "bool"
				},
				{
					"internalType": "uint256",
					"name": "newAccountBalance",
					"type": "uint256"
				},
				{
					"internalType": "string",
					"name": "newCustomerName",
					"type": "string"
				},
				{
					"internalType": "string",
					"name": "newCustomerLastName",
					"type": "string"
				}
			],
			"name": "setInfo",
			"outputs": [],
			"stateMutability": "nonpayable",
			"type": "function"
		}
	]
}